:1000000014C023C022C021C020C01FC01EC0E6C033
:10001000F7C01BC01AC019C018C017C016C015C041
:1000200014C013C012C00000FF0011241FBECFE592
:10003000D2E0DEBFCDBF21E0A0E6B0E001C01D925E
:10004000AE39B207E1F75DD22FC4DACFCF92DF929B
:10005000EF92FF92CF93DF93DC01AC59BF4F6C91CD
:10006000FC01EB59FF4F8081CC91D08170E0762F5D
:100070006627680F711D80E090E01DD36B017C0145
:100080008C2F90E0982F88278D0F911DBC0180E068
:1000900090E011D39B01AC01C701B60178D220E0FA
:1000A00030E04FE753E495D3DAD2862FDF91CF913A
:1000B000FF90EF90DF90CF900895F8941092650034
:1000C000109266001092670064E170E085E690E0AF
:1000D00064D1E6E2F0E0E491E0936500E7E2F0E06D
:1000E000E491E0936600E8E2F0E0E491E0936700D9
:1000F0001092640080E090E0FC01E859FF4F019607
:100100008D33910511F01082F7CF789408950F93F5
:100110001F93CF93DF9346E250E0FA01A49127E2C8
:1001200030E0F901B49168E270E0FB0114918EE9CE
:1001300091E0F1E082369F07B9F0EC012197188336
:10014000F12FF07F09F01695EC012297B883FB2F71
:10015000F07F09F0B695EC012397A883FA2FF07F82
:1001600009F0A695CE01E5CFFA01D491F901C49129
:10017000FB0114916CE370E082E691E0C0D1A8E647
:10018000B0E084E18150C0F09C91DC938111D92FC3
:1001900011969C9111971196CC9311978111C92FAB
:1001A00012969C9112979D012D5F3F4F12961C93C2
:1001B0008111192FD901E6CF07E40150D9F2C9D036
:1001C000811107C08FEC97E00197F1F700C00000A4
:1001D000F4CFDF91CF911F910F9108951F920F924D
:1001E0000FB60F9211248F9310926100B299FECF37
:1001F00080EF8EB98F910F900FBE0F901F901895C2
:100200001F920F920FB60F9211242F938F939F93EB
:10021000EF93FF9380916300811150C08091610042
:10022000813089F100F18230E1F1833009F03EC084
:10023000E0916000F0E0EC59FF4F808110828FB1B7
:10024000E0916000F0E0EC59FF4F9081892B8083B2
:10025000809162008F5F80936200809160008F5F69
:100260008093600021C08FB186958F7B79F4789B55
:1002700002C082E013C01092600081E080936100B0
:100280008093620011C08FB18E3F20F084E0809394
:1002900061000CC08FB18093600083E080936100A7
:1002A00003C01FB880E005C01FB802C080E88FB946
:1002B00081E091E0909363009EED1EC0809161000B
:1002C0008230B1F48FB1882331F01092600084E065
:1002D000809361000DC0E091600081E08E0F8093FB
:1002E0006000F0E0EC59FF4F80818FB981E001C0E0
:1002F00080E01092630090ED209160002E3F10F09E
:1003000010926000813011F4D09A01C0D0989EB94B
:10031000FF91EF919F918F912F910F900FBE0F90B2
:100320001F9018951092610088EF8DB9D29AD098DD
:100330008BB385608BBB80EF8EB90895809161008F
:10034000843029F09091610081E0911101C080E03A
:10035000089580916100833091F480916200882338
:1003600071F0F894759B08C084E0809361008091DF
:1003700062001092620001C080E07894089580E0ED
:100380000895982F88E06BBB97FF4BBB990F000037
:1003900000C04BBB8A95B9F708958F929F92BF9288
:1003A000CF92DF92EF92FF920F931F93CF93DF9341
:1003B0006C01D19A9BB39D7FF92E9BB39260E92E7D
:1003C000BFB6F894EB01460183E0880E911C20979C
:1003D00061F086014F2D6E2DF80181918F01D1DFE3
:1003E00008151905B9F72197F2CFBFBEF5E8FA95C0
:1003F000F1F70000DF91CF911F910F91FF90EF90E7
:10040000DF90CF90BF909F908F9008958F929F9292
:10041000BF92CF92DF92EF92FF920F931F93CF93F1
:10042000DF936C01D19A9BB39D7FF92E9BB39260B1
:10043000E92EBFB6F894EB01460184E0880E911CCA
:10044000209761F086014F2D6E2DF80181918F016B
:1004500098DF08151905B9F72197F2CFBFBEF5ED62
:10046000FA95F1F70000DF91CF911F910F91FF9066
:10047000EF90DF90CF90BF909F908F900895DF9284
:10048000EF92FF920F931F93CF93DF932AB3242B06
:100490002ABB2BB3F42EF094F2222BB3E42EE22AE3
:1004A000DFB6F894EC018C01060F171FC017D107B7
:1004B00029F04F2D6E2D899164DFF8CFDFBEDF91DB
:1004C000CF911F910F91FF90EF90DF9008959B01C6
:1004D000220F331F620F731FD2DF85E88A95F1F771
:1004E0000000089542E0F3CF660F771F660F771F75
:1004F00042E0C5DF85ED8A95F1F70000089542E0FE
:10050000BECF88E087BB81E081BB0CDF7894FFDD44
:100510008091640080FF02C0D0DD0FC08091640034
:1005200081FF06C064E170E085E690E036DF05C03B
:100530006CE370E082E691E0E2DF00E010E0C6E00C
:10054000D0E078018FEFE81AF80ACE017FDDF701DD
:10055000EE59FE4F8083CE01049678DDF801EE5906
:10056000FE4F8083780182E0E80EF11CCE010896F0
:100570006DDDF701EE59FE4F80832C960D5F1F4F06
:10058000C63FD105F1F6E5DE8823E9F3C1CF0CD0F3
:10059000E6C0DED040F0D5D030F021F45F3F19F056
:1005A000C7C0511110C1CAC0EBD098F39923C9F349
:1005B0005523B1F3951B550BBB27AA276217730769
:1005C000840738F09F5F5F4F220F331F441FAA1F1D
:1005D000A9F333D00E2E3AF0E0E830D091505040DD
:1005E000E695001CCAF729D0FE2F27D0660F771F8B
:1005F000881FBB1F261737074807AB07B0E809F06D
:10060000BB0B802DBF01FF2793585F4F2AF09E3F01
:10061000510568F08DC0D7C05F3FECF3983EDCF326
:10062000869577956795B795F7959F5FC9F7880F7A
:10063000911D9695879597F90895E1E0660F771FCC
:10064000881FBB1F621773078407BA0720F0621B5D
:10065000730B840BBA0BEE1F88F7E095089598D0C2
:1006600088F09F5790F0B92F9927B751A0F0D1F09B
:10067000660F771F881F991F1AF0BA95C9F712C025
:10068000B13081F09FD0B1E008959CC0672F782FE2
:100690008827B85F39F0B93FCCF386957795679591
:1006A000B395D9F73EF490958095709561957F4FFD
:1006B0008F4F9F4F0895E89409C097FB3EF49095A3
:1006C0008095709561957F4F8F4F9F4F9923A9F02B
:1006D000F92F96E9BB279395F695879577956795BA
:1006E000B795F111F8CFFAF4BB0F11F460FF1BC0FE
:1006F0006F5F7F4F8F4F9F4F16C0882311F096E991
:1007000011C0772321F09EE8872F762F05C066233E
:1007100071F096E8862F70E060E02AF09A95660FF7
:10072000771F881FDAF7880F9695879597F90895B0
:1007300097F99F6780E870E060E008959FEF80EC94
:10074000089500240A941616170618060906089537
:1007500000240A9412161306140605060895092E9D
:100760000394000C11F4882352F0BB0F40F4BF2B0C
:1007700011F460FF04C06F5F7F4F8F4F9F4F08954C
:1007800057FD9058440F551F59F05F3F71F0479542
:10079000880F97FB991F61F09F3F79F08795089527
:1007A000121613061406551FF2CF4695F1DF08C046
:1007B000161617061806991FF1CF86957105610563
:1007C00008940895E894BB2766277727CB0197F90B
:1007D00008950AD0C4CFB5DF28F0BADF18F095230A
:1007E00009F0A6CFABCFEFCFCBDFA8F39923D9F396
:1007F0005523C9F3950F50E0551FAA27EE27FF2771
:10080000BB2700240894679520F4E20FF31FB41F60
:100810000A1E220F331F441FAA1F6695A9F777955A
:1008200030F4F30FB41F0A1E121E08F46395330F41
:10083000441FAA1F221F769599F7879520F4B40FBD
:100840000A1E121E631F440FAA1F221F331F869504
:10085000A9F7862F712D602D11249F5750408AF0E3
:10086000E1F088234AF0EE0FFF1FBB1F661F771FC2
:10087000881F91505040A9F79E3F510570F058CF06
:10088000A2CF5F3FECF3983EDCF3869577956795B2
:10089000B795F795E7959F5FC1F7FE2B880F911DE0
:0C08A0009695879597F90895F894FFCF7E
:00000001FF
